:1000000000308A007F280000B0013008033C031C48
:1000100024282C083007B100310883169B009C135C
:100020001C141A088312AF0030082D07F8002E08A0
:10003000FA000318FA0A7808840083137A188317E1
:100040002F088000B00A0528B0282C3084008313C4
:100050000008031939280130F800F701F70B2E28A2
:10006000F80B2D284A30F700F70B34283728800B7F
:100070002B280800B0013008033C031C6A28300814
:100080002D07F8002E08FA000318FA0A78088400F1
:1000900083137A1883170008AF0030082C07B100CB
:1000A000310883169B0083122F0883169A001C15B3
:1000B00083120B08F7008B13831655309D00AA306E
:1000C0009D009C149C1862281C11770883128B04D5
:1000D000B00A3B2808001230AD02031C7E282D30E8
:1000E00084008313FC3080050310800C800C000812
:1000F00003197E287C280000800B7B2808008401DF
:1001000083131F30830507309F00831686018312F7
:100110008601A301A2014C30A1009030A000A701EC
:10012000A6010730A5003A30A40024082002A80048
:100130002108A9002508031C250FA9022208AA00EE
:100140002608031C260FAA022308AB002708031C5D
:10015000270FAB020130AC00AE012430AD00042803
:1001600024082002A8002108A9002508031C250F47
:10017000A9022208AA002608031C260FAA022308A7
:10018000AB002708031C270FAB0205180C291930F8
:10019000AC0025203230A407003003180130A50739
:1001A000003003180130A607003003180130A707FC
:1001B000A71BF128A708031DEB28A608031DEB28A1
:1001C0002508063C0318F128FF3A031DEB282408F4
:1001D0006C3C0318F128A701A6010730A5006C307C
:1001E000A40024082002A8002108A9002508031C57
:1001F000250FA9022208AA002608031C260FAA021E
:100200002308AB002708031C270FAB020130AC000A
:10021000AE012430AD003A20851852291930AC00C7
:1002200025203230A4020030031C0130A50200302A
:10023000031C0130A6020030031C0130A702A71BDB
:100240003129A708031D3729A608031D37292508CA
:10025000033C031C3729031D31292408513C031C8E
:100260003729A701A6010330A5003430A4002408D3
:100270002002A8002108A9002508031C250FA902B7
:100280002208AA002608031C260FAA022308AB0096
:100290002708031C270FAB020130AC00AE0124304D
:1002A000AD003A2083168611831286152508AC000E
:1002B000AC0AAC0303196029FF30AD006B2059294B
:1002C0002408AD006B20831686118312861129083D
:1002D000AC00AC0AAC0303197129FF30AD006B20F0
:0C02E0006A292808AD006B20C5286300C7
:02400E00103F61
:00000001FF
;PIC16F628A
;CRC=50D2  CREATED="15-Ara-12 17:46"
